{
  "contractName": "ZombieAttack",
  "abi": [
    {
      "constant": false,
      "inputs": [
        {
          "name": "_zombieId",
          "type": "uint256"
        }
      ],
      "name": "levelUp",
      "outputs": [],
      "payable": true,
      "stateMutability": "payable",
      "type": "function"
    },
    {
      "constant": false,
      "inputs": [
        {
          "name": "_zombieId",
          "type": "uint256"
        },
        {
          "name": "_kittyId",
          "type": "uint256"
        }
      ],
      "name": "feedOnKitty",
      "outputs": [],
      "payable": false,
      "stateMutability": "nonpayable",
      "type": "function"
    },
    {
      "constant": true,
      "inputs": [
        {
          "name": "",
          "type": "uint256"
        }
      ],
      "name": "zombies",
      "outputs": [
        {
          "name": "name",
          "type": "string"
        },
        {
          "name": "dna",
          "type": "uint256"
        },
        {
          "name": "level",
          "type": "uint32"
        },
        {
          "name": "readyTime",
          "type": "uint32"
        },
        {
          "name": "winCount",
          "type": "uint16"
        },
        {
          "name": "lossCount",
          "type": "uint16"
        }
      ],
      "payable": false,
      "stateMutability": "view",
      "type": "function"
    },
    {
      "constant": false,
      "inputs": [],
      "name": "withdraw",
      "outputs": [],
      "payable": false,
      "stateMutability": "nonpayable",
      "type": "function"
    },
    {
      "constant": true,
      "inputs": [
        {
          "name": "_owner",
          "type": "address"
        }
      ],
      "name": "getZombiesByOwner",
      "outputs": [
        {
          "name": "",
          "type": "uint256[]"
        }
      ],
      "payable": false,
      "stateMutability": "view",
      "type": "function"
    },
    {
      "constant": true,
      "inputs": [
        {
          "name": "",
          "type": "uint256"
        }
      ],
      "name": "zombieToOwner",
      "outputs": [
        {
          "name": "",
          "type": "address"
        }
      ],
      "payable": false,
      "stateMutability": "view",
      "type": "function"
    },
    {
      "constant": false,
      "inputs": [
        {
          "name": "_address",
          "type": "address"
        }
      ],
      "name": "setKittyContractAddress",
      "outputs": [],
      "payable": false,
      "stateMutability": "nonpayable",
      "type": "function"
    },
    {
      "constant": false,
      "inputs": [
        {
          "name": "_zombieId",
          "type": "uint256"
        },
        {
          "name": "_newDna",
          "type": "uint256"
        }
      ],
      "name": "changeDna",
      "outputs": [],
      "payable": false,
      "stateMutability": "nonpayable",
      "type": "function"
    },
    {
      "constant": false,
      "inputs": [],
      "name": "renounceOwnership",
      "outputs": [],
      "payable": false,
      "stateMutability": "nonpayable",
      "type": "function"
    },
    {
      "constant": false,
      "inputs": [
        {
          "name": "_name",
          "type": "string"
        }
      ],
      "name": "createRandomZombie",
      "outputs": [],
      "payable": false,
      "stateMutability": "nonpayable",
      "type": "function"
    },
    {
      "constant": true,
      "inputs": [],
      "name": "owner",
      "outputs": [
        {
          "name": "",
          "type": "address"
        }
      ],
      "payable": false,
      "stateMutability": "view",
      "type": "function"
    },
    {
      "constant": true,
      "inputs": [],
      "name": "isOwner",
      "outputs": [
        {
          "name": "",
          "type": "bool"
        }
      ],
      "payable": false,
      "stateMutability": "view",
      "type": "function"
    },
    {
      "constant": false,
      "inputs": [
        {
          "name": "_zombieId",
          "type": "uint256"
        },
        {
          "name": "_newName",
          "type": "string"
        }
      ],
      "name": "changeName",
      "outputs": [],
      "payable": false,
      "stateMutability": "nonpayable",
      "type": "function"
    },
    {
      "constant": false,
      "inputs": [
        {
          "name": "_fee",
          "type": "uint256"
        }
      ],
      "name": "setLevelUpFee",
      "outputs": [],
      "payable": false,
      "stateMutability": "nonpayable",
      "type": "function"
    },
    {
      "constant": false,
      "inputs": [
        {
          "name": "newOwner",
          "type": "address"
        }
      ],
      "name": "transferOwnership",
      "outputs": [],
      "payable": false,
      "stateMutability": "nonpayable",
      "type": "function"
    },
    {
      "anonymous": false,
      "inputs": [
        {
          "indexed": false,
          "name": "zombieId",
          "type": "uint256"
        },
        {
          "indexed": false,
          "name": "name",
          "type": "string"
        },
        {
          "indexed": false,
          "name": "dna",
          "type": "uint256"
        }
      ],
      "name": "NewZombie",
      "type": "event"
    },
    {
      "anonymous": false,
      "inputs": [
        {
          "indexed": true,
          "name": "previousOwner",
          "type": "address"
        },
        {
          "indexed": true,
          "name": "newOwner",
          "type": "address"
        }
      ],
      "name": "OwnershipTransferred",
      "type": "event"
    },
    {
      "constant": false,
      "inputs": [
        {
          "name": "_zombieId",
          "type": "uint256"
        },
        {
          "name": "_targetId",
          "type": "uint256"
        }
      ],
      "name": "attack",
      "outputs": [],
      "payable": false,
      "stateMutability": "nonpayable",
      "type": "function"
    }
  ],
  "bytecode": "0x60806040526010600155600154600a0a6002556201518060035566038d7ea4c6800060085560006009556046600a55336000806101000a81548173ffffffffffffffffffffffffffffffffffffffff021916908373ffffffffffffffffffffffffffffffffffffffff1602179055506000809054906101000a900473ffffffffffffffffffffffffffffffffffffffff1673ffffffffffffffffffffffffffffffffffffffff16600073ffffffffffffffffffffffffffffffffffffffff167f8be0079c531659141344cd1fd0a4f28419497f9722a3daafe3b4186f6b6457e060405160405180910390a3611c01806100f96000396000f3fe6080604052600436106100e6576000357c0100000000000000000000000000000000000000000000000000000000900463ffffffff1680630ce90ec2146100eb57806317a7f4cc146101195780632052465e1461015e5780633ccfd60b1461025d5780634412e10414610274578063528b7b8f1461031a5780635f4623f1146103955780635faf2880146103e6578063715018a61461042b5780637bff0a01146104425780638da5cb5b1461050a5780638f32d59b14610561578063c39cbef114610590578063ccf670f814610620578063e1fa76381461065b578063f2fde38b146106a0575b600080fd5b6101176004803603602081101561010157600080fd5b81019080803590602001909291905050506106f1565b005b34801561012557600080fd5b5061015c6004803603604081101561013c57600080fd5b81019080803590602001909291908035906020019092919050505061078c565b005b34801561016a57600080fd5b506101976004803603602081101561018157600080fd5b8101908080359060200190929190505050610933565b60405180806020018781526020018663ffffffff1663ffffffff1681526020018563ffffffff1663ffffffff1681526020018461ffff1661ffff1681526020018361ffff1661ffff168152602001828103825288818151815260200191508051906020019080838360005b8381101561021d578082015181840152602081019050610202565b50505050905090810190601f16801561024a5780820380516001836020036101000a031916815260200191505b5097505050505050505060405180910390f35b34801561026957600080fd5b50610272610a52565b005b34801561028057600080fd5b506102c36004803603602081101561029757600080fd5b81019080803573ffffffffffffffffffffffffffffffffffffffff169060200190929190505050610ad2565b6040518080602001828103825283818151815260200191508051906020019060200280838360005b838110156103065780820151818401526020810190506102eb565b505050509050019250505060405180910390f35b34801561032657600080fd5b506103536004803603602081101561033d57600080fd5b8101908080359060200190929190505050610c03565b604051808273ffffffffffffffffffffffffffffffffffffffff1673ffffffffffffffffffffffffffffffffffffffff16815260200191505060405180910390f35b3480156103a157600080fd5b506103e4600480360360208110156103b857600080fd5b81019080803573ffffffffffffffffffffffffffffffffffffffff169060200190929190505050610c36565b005b3480156103f257600080fd5b506104296004803603604081101561040957600080fd5b810190808035906020019092919080359060200190929190505050610c8d565b005b34801561043757600080fd5b50610440610d6f565b005b34801561044e57600080fd5b506105086004803603602081101561046557600080fd5b810190808035906020019064010000000081111561048257600080fd5b82018360208201111561049457600080fd5b803590602001918460018302840111640100000000831117156104b657600080fd5b91908080601f016020809104026020016040519081016040528093929190818152602001838380828437600081840152601f19601f820116905080830192505050505050509192919290505050610e41565b005b34801561051657600080fd5b5061051f610ebb565b604051808273ffffffffffffffffffffffffffffffffffffffff1673ffffffffffffffffffffffffffffffffffffffff16815260200191505060405180910390f35b34801561056d57600080fd5b50610576610ee4565b604051808215151515815260200191505060405180910390f35b34801561059c57600080fd5b5061061e600480360360408110156105b357600080fd5b8101908080359060200190929190803590602001906401000000008111156105da57600080fd5b8201836020820111156105ec57600080fd5b8035906020019184600183028401116401000000008311171561060e57600080fd5b9091929391929390505050610f3b565b005b34801561062c57600080fd5b506106596004803603602081101561064357600080fd5b8101908080359060200190929190505050611029565b005b34801561066757600080fd5b5061069e6004803603604081101561067e57600080fd5b810190808035906020019092919080359060200190929190505050611046565b005b3480156106ac57600080fd5b506106ef600480360360208110156106c357600080fd5b81019080803573ffffffffffffffffffffffffffffffffffffffff1690602001909291905050506112da565b005b6008543414151561070157600080fd5b61074b600160048381548110151561071557fe5b906000526020600020906003020160020160009054906101000a900463ffffffff1663ffffffff166112f990919063ffffffff16565b60048281548110151561075a57fe5b906000526020600020906003020160020160006101000a81548163ffffffff021916908363ffffffff16021790555050565b6000600760009054906101000a900473ffffffffffffffffffffffffffffffffffffffff1673ffffffffffffffffffffffffffffffffffffffff1663e98b7f4d836040518263ffffffff167c0100000000000000000000000000000000000000000000000000000000028152600401808281526020019150506101406040518083038186803b15801561081e57600080fd5b505afa158015610832573d6000803e3d6000fd5b505050506040513d61014081101561084957600080fd5b81019080805190602001909291908051906020019092919080519060200190929190805190602001909291908051906020019092919080519060200190929190805190602001909291908051906020019092919080519060200190929190805190602001909291905050509091929394959697985090919293949596975090919293949596509091929394955090919293945090919293509091925090915090508091505061092e83826040805190810160405280600581526020017f6b69747479000000000000000000000000000000000000000000000000000000815250611323565b505050565b60048181548110151561094257fe5b9060005260206000209060030201600091509050806000018054600181600116156101000203166002900480601f0160208091040260200160405190810160405280929190818152602001828054600181600116156101000203166002900480156109ee5780601f106109c3576101008083540402835291602001916109ee565b820191906000526020600020905b8154815290600101906020018083116109d157829003601f168201915b5050505050908060010154908060020160009054906101000a900463ffffffff16908060020160049054906101000a900463ffffffff16908060020160089054906101000a900461ffff169080600201600a9054906101000a900461ffff16905086565b610a5a610ee4565b1515610a6557600080fd5b6000610a6f610ebb565b90508073ffffffffffffffffffffffffffffffffffffffff166108fc3073ffffffffffffffffffffffffffffffffffffffff16319081150290604051600060405180830381858888f19350505050158015610ace573d6000803e3d6000fd5b5050565b606080600660008473ffffffffffffffffffffffffffffffffffffffff1673ffffffffffffffffffffffffffffffffffffffff16815260200190815260200160002054604051908082528060200260200182016040528015610b435781602001602082028038833980820191505090505b509050600080905060008090505b600480549050811015610bf8578473ffffffffffffffffffffffffffffffffffffffff166005600083815260200190815260200160002060009054906101000a900473ffffffffffffffffffffffffffffffffffffffff1673ffffffffffffffffffffffffffffffffffffffff161415610beb57808383815181101515610bd457fe5b906020019060200201818152505081806001019250505b8080600101915050610b51565b508192505050919050565b60056020528060005260406000206000915054906101000a900473ffffffffffffffffffffffffffffffffffffffff1681565b610c3e610ee4565b1515610c4957600080fd5b80600760006101000a81548173ffffffffffffffffffffffffffffffffffffffff021916908373ffffffffffffffffffffffffffffffffffffffff16021790555050565b60148281600482815481101515610ca057fe5b906000526020600020906003020160020160009054906101000a900463ffffffff1663ffffffff1610151515610cd557600080fd5b836005600082815260200190815260200160002060009054906101000a900473ffffffffffffffffffffffffffffffffffffffff1673ffffffffffffffffffffffffffffffffffffffff163373ffffffffffffffffffffffffffffffffffffffff16141515610d4357600080fd5b83600486815481101515610d5357fe5b9060005260206000209060030201600101819055505050505050565b610d77610ee4565b1515610d8257600080fd5b600073ffffffffffffffffffffffffffffffffffffffff166000809054906101000a900473ffffffffffffffffffffffffffffffffffffffff1673ffffffffffffffffffffffffffffffffffffffff167f8be0079c531659141344cd1fd0a4f28419497f9722a3daafe3b4186f6b6457e060405160405180910390a360008060006101000a81548173ffffffffffffffffffffffffffffffffffffffff021916908373ffffffffffffffffffffffffffffffffffffffff160217905550565b6000600660003373ffffffffffffffffffffffffffffffffffffffff1673ffffffffffffffffffffffffffffffffffffffff16815260200190815260200160002054141515610e8f57600080fd5b6000610e9a82611513565b9050606481811515610ea857fe5b0681039050610eb782826115a6565b5050565b60008060009054906101000a900473ffffffffffffffffffffffffffffffffffffffff16905090565b60008060009054906101000a900473ffffffffffffffffffffffffffffffffffffffff1673ffffffffffffffffffffffffffffffffffffffff163373ffffffffffffffffffffffffffffffffffffffff1614905090565b60028381600482815481101515610f4e57fe5b906000526020600020906003020160020160009054906101000a900463ffffffff1663ffffffff1610151515610f8357600080fd5b846005600082815260200190815260200160002060009054906101000a900473ffffffffffffffffffffffffffffffffffffffff1673ffffffffffffffffffffffffffffffffffffffff163373ffffffffffffffffffffffffffffffffffffffff16141515610ff157600080fd5b848460048881548110151561100257fe5b90600052602060002090600302016000019190611020929190611ab0565b50505050505050565b611031610ee4565b151561103c57600080fd5b8060088190555050565b816005600082815260200190815260200160002060009054906101000a900473ffffffffffffffffffffffffffffffffffffffff1673ffffffffffffffffffffffffffffffffffffffff163373ffffffffffffffffffffffffffffffffffffffff161415156110b457600080fd5b60006004848154811015156110c557fe5b9060005260206000209060030201905060006004848154811015156110e657fe5b9060005260206000209060030201905060006111026064611879565b9050600a54811115156112385761113960018460020160089054906101000a900461ffff1661ffff1661192190919063ffffffff16565b8360020160086101000a81548161ffff021916908361ffff16021790555061118560018460020160009054906101000a900463ffffffff1663ffffffff166112f990919063ffffffff16565b8360020160006101000a81548163ffffffff021916908363ffffffff1602179055506111d1600183600201600a9054906101000a900461ffff1661ffff1661192190919063ffffffff16565b82600201600a6101000a81548161ffff021916908361ffff1602179055506112338683600101546040805190810160405280600681526020017f7a6f6d6269650000000000000000000000000000000000000000000000000000815250611323565b6112d2565b611262600184600201600a9054906101000a900461ffff1661ffff1661192190919063ffffffff16565b83600201600a6101000a81548161ffff021916908361ffff1602179055506112aa60018360020160089054906101000a900461ffff1661ffff1661192190919063ffffffff16565b8260020160086101000a81548161ffff021916908361ffff1602179055506112d183611947565b5b505050505050565b6112e2610ee4565b15156112ed57600080fd5b6112f681611971565b50565b60008082840190508363ffffffff168163ffffffff161015151561131957fe5b8091505092915050565b826005600082815260200190815260200160002060009054906101000a900473ffffffffffffffffffffffffffffffffffffffff1673ffffffffffffffffffffffffffffffffffffffff163373ffffffffffffffffffffffffffffffffffffffff1614151561139157600080fd5b60006004858154811015156113a257fe5b906000526020600020906003020190506113bb81611a6b565b15156113c657600080fd5b600254848115156113d357fe5b06935060006002858360010154018115156113ea57fe5b04905060405160200180807f6b69747479000000000000000000000000000000000000000000000000000000815250600501905060405160208183030381529060405280519060200120846040516020018082805190602001908083835b60208310151561146d5780518252602082019150602081019050602083039250611448565b6001836020036101000a0380198251168184511680821785525050505050509050019150506040516020818303038152906040528051906020012014156114c35760636064828115156114bc57fe5b0682030190505b6115026040805190810160405280600681526020017f4e6f4e616d650000000000000000000000000000000000000000000000000000815250826115a6565b61150b82611947565b505050505050565b600080826040516020018082805190602001908083835b60208310151561154f578051825260208201915060208101905060208303925061152a565b6001836020036101000a038019825116818451168082178552505050505050905001915050604051602081830303815290604052805190602001206001900490506002548181151561159d57fe5b06915050919050565b60006001600460c060405190810160405280868152602001858152602001600163ffffffff168152602001600354420163ffffffff168152602001600061ffff168152602001600061ffff1681525090806001815401808255809150509060018203906000526020600020906003020160009091929091909150600082015181600001908051906020019061163c929190611b30565b506020820151816001015560408201518160020160006101000a81548163ffffffff021916908363ffffffff16021790555060608201518160020160046101000a81548163ffffffff021916908363ffffffff16021790555060808201518160020160086101000a81548161ffff021916908361ffff16021790555060a082015181600201600a6101000a81548161ffff021916908361ffff1602179055505050039050336005600083815260200190815260200160002060006101000a81548173ffffffffffffffffffffffffffffffffffffffff021916908373ffffffffffffffffffffffffffffffffffffffff1602179055506117856001600660003373ffffffffffffffffffffffffffffffffffffffff1673ffffffffffffffffffffffffffffffffffffffff16815260200190815260200160002054611a9290919063ffffffff16565b600660003373ffffffffffffffffffffffffffffffffffffffff1673ffffffffffffffffffffffffffffffffffffffff168152602001908152602001600020819055507f88f026aacbbecc90c18411df4b1185fd8d9be2470f1962f192bf84a27d0704b78184846040518084815260200180602001838152602001828103825284818151815260200191508051906020019080838360005b8381101561183857808201518184015260208101905061181d565b50505050905090810190601f1680156118655780820380516001836020036101000a031916815260200191505b5094505050505060405180910390a1505050565b60006118916001600954611a9290919063ffffffff16565b600981905550814233600954604051602001808481526020018373ffffffffffffffffffffffffffffffffffffffff1673ffffffffffffffffffffffffffffffffffffffff166c010000000000000000000000000281526014018281526020019350505050604051602081830303815290604052805190602001206001900481151561191957fe5b069050919050565b60008082840190508361ffff168161ffff161015151561193d57fe5b8091505092915050565b60035442018160020160046101000a81548163ffffffff021916908363ffffffff16021790555050565b600073ffffffffffffffffffffffffffffffffffffffff168173ffffffffffffffffffffffffffffffffffffffff16141515156119ad57600080fd5b8073ffffffffffffffffffffffffffffffffffffffff166000809054906101000a900473ffffffffffffffffffffffffffffffffffffffff1673ffffffffffffffffffffffffffffffffffffffff167f8be0079c531659141344cd1fd0a4f28419497f9722a3daafe3b4186f6b6457e060405160405180910390a3806000806101000a81548173ffffffffffffffffffffffffffffffffffffffff021916908373ffffffffffffffffffffffffffffffffffffffff16021790555050565b6000428260020160049054906101000a900463ffffffff1663ffffffff1611159050919050565b6000808284019050838110151515611aa657fe5b8091505092915050565b828054600181600116156101000203166002900490600052602060002090601f016020900481019282601f10611af157803560ff1916838001178555611b1f565b82800160010185558215611b1f579182015b82811115611b1e578235825591602001919060010190611b03565b5b509050611b2c9190611bb0565b5090565b828054600181600116156101000203166002900490600052602060002090601f016020900481019282601f10611b7157805160ff1916838001178555611b9f565b82800160010185558215611b9f579182015b82811115611b9e578251825591602001919060010190611b83565b5b509050611bac9190611bb0565b5090565b611bd291905b80821115611bce576000816000905550600101611bb6565b5090565b9056fea165627a7a7230582078a93e3dcf9f656816d9f1f1a66f4bace2ec6775835180e50d037cfbd42716c20029",
  "source": "pragma solidity >=0.5.0 <0.6.0;\r\n\r\nimport \"./zombiehelper.sol\";\r\n\r\ncontract ZombieAttack is ZombieHelper {\r\n  uint randNonce = 0;\r\n  uint attackVictoryProbability = 70;\r\n\r\n  function randMod(uint _modulus) internal returns(uint) {\r\n    randNonce = randNonce.add(1);\r\n    return uint(keccak256(abi.encodePacked(now, msg.sender, randNonce))) % _modulus;\r\n  }\r\n\r\n  function attack(uint _zombieId, uint _targetId) external onlyOwnerOf(_zombieId) {\r\n    Zombie storage myZombie = zombies[_zombieId];\r\n    Zombie storage enemyZombie = zombies[_targetId];\r\n    uint rand = randMod(100);\r\n    if (rand <= attackVictoryProbability) {\r\n      myZombie.winCount = myZombie.winCount.add(1);\r\n      myZombie.level = myZombie.level.add(1);\r\n      enemyZombie.lossCount = enemyZombie.lossCount.add(1);\r\n      feedAndMultiply(_zombieId, enemyZombie.dna, \"zombie\");\r\n    } else {\r\n      myZombie.lossCount = myZombie.lossCount.add(1);\r\n      enemyZombie.winCount = enemyZombie.winCount.add(1);\r\n      _triggerCooldown(myZombie);\r\n    }\r\n  }\r\n}\r\n",
  "sourcePath": "/home/mwisni/CryptoZombies5/CryptoZombies4/contracts/zombieattack.sol",
  "compiler": {
    "name": "solc",
    "version": "0.5.0+commit.1d4f565a.Emscripten.clang"
  },
  "schemaVersion": "3.4.12",
  "updatedAt": "2023-02-21T22:45:32.572Z",
  "devdoc": {
    "methods": {
      "isOwner()": {
        "return": "true if `msg.sender` is the owner of the contract.\r"
      },
      "owner()": {
        "return": "the address of the owner.\r"
      },
      "renounceOwnership()": {
        "details": "Allows the current owner to relinquish control of the contract.\r"
      },
      "transferOwnership(address)": {
        "details": "Allows the current owner to transfer control of the contract to a newOwner.\r",
        "params": {
          "newOwner": "The address to transfer ownership to.\r"
        }
      }
    }
  },
  "userdoc": {
    "methods": {
      "renounceOwnership()": {
        "notice": "Renouncing to ownership will leave the contract without an owner.\r It will not be possible to call the functions with the `onlyOwner`\r modifier anymore.\r"
      }
    }
  }
}